:1000030000000018244242424242424224180000A7
:10001300000000107010101010101010107C000061
:100023000000003C4242420404081020427E0000CB
:100033000000003C4242041804020242443800001B
:10004300000000040C14242444447E04041E000015
:100053000000007E404040586402024244380000E1
:100063000000001C2440405864424242241800000F
:100073000000007E44440808101010101010000007
:100083000000003C4242422418244242423C000009
:100093000000001824424242261A020224380000BB
:1000A3000000001010182828243C444242E70000B6
:1000B300000000F8444444784442424244F80000BB
:1000C3000000003E4242808080808042443800002D
:1000D300000000F8444242424242424244F80000D7
:1000E300000000FC424848784848404242FC000077
:1000F300000000FC424848784848404040E0000087
:100103000000003C44448080808E844444380000D6
:10011300000000E7424242427E42424242E7000080
:100123000000007C1010101010101010107C000044
:100133000000003E0808080808080808080888F0B6
:10014300000000EE444850705048484444EE00001C
:10015300000000E0404040404040404042FE00007C
:10016300000000EE6C6C6C6C5454545454D6000074
:10017300000000C7626252524A4A4A4646E2000001
:1001830000000038448282828282828244380000E6
:10019300000000FC424242427C40404040E00000FC
:1001A30000000038448282828282B2CA4C38060040
:1001B300000000FC4242427C4848444442E30000C1
:1001C3000000003E4242402018040242427C0000EC
:1001D300000000FE921010101010101010380000D4
:1001E300000000E74242424242424242423C000097
:1001F300000000E74242442424282818101000007D
:10020300000000D692929292AAAA6C444444000041
:10021300000000E7422424181818242442E70000B1
:10022300000000EE4444282810101010103800007D
:100233000000007E840408081020204242FC0000D5
:10024300001E1010101010101010101010101E00AF
:10025300000040402020101010080804040402028B
:10026300007808080808080808080808080878003B
:10027300001C22000000000000000000000000003D
:10028300000000000000000000000000000000FF6C
:1002930000601000000000000000000000000000EB
:1002A300000000000000003C421E2242423F0000CA
:1002B300000000C04040405864424242645800007D
:1002C300000000000000001C22404040221C0000EF
:1002D300000000060202021E22424242261B0000C8
:1002E300000000000000003C427E4040423C000011
:1002F3000000000F1110107E10101010107C000071
:10030300000000000000003E444438403C42423CB0
:10031300000000C04040405C6242424242E70000AD
:10032300000000303000007010101010107C00002E
:100333000000000C0C00001C0404040404044478B2
:10034300000000C04040404E4850684844EE000062
:10035300000000701010101010101010107C00001E
:1003630000000000000000FE4949494949ED000032
:1003730000000000000000DC6242424242E700004D
:10038300000000000000003C42424242423C0000A8
:1003930000000000000000D864424242447840E07C
:1003A300000000000000001E22424242221E0207FB
:1003B30000000000000000EE3220202020F80000A2
:1003C300000000000000003E42403C02427C00006E
:1003D300000000000010107C10101010100C000022
:1003E30000000000000000C642424242463B0000BB
:1003F30000000000000000E7422424281010000041
:1004030000000000000000D79292AAAA4444000012
:10041300000000000000006E241818182476000065
:1004230000000000000000E742242428181010E018
:10043300000000000000007E44081010227E00002F
:10044300000304040404040804040404040403006F
:100453000808080808080808080808080808080819
:100463000060101010101008101010101010600011
:10047300304C4300000000000000000000000000BA
:100483000000000000000000000000000000000069
:1004930000000010101010101010000018180000B9
:1004A3000012362448000000000000000000000095
:1004B300000000242424FE484848FE484848000021
:1004C3000000103854545030181414545438101079
:1004D30000000044A4A8A8A8541A2A2A2A44000009
:1004E30000000030484848506EA494888976000084
:1004F30000606020C0000000000000000000000059
:10050300000204080810101010101008080402005C
:1005130000402010100808080808081010204000A8
:10052300000000001010D63838D61010000000006C
:100533000000000010101010FE101010100000003A
:10054300000000000000000000000000606020C008
:1005530000000000000000007F0000000000000019
:1005630000000000000000000000000060600000C8
:10057300000001020204040808101020204040007B
:100583000000000000001818000000001818000008
:100593000000000000000010000000000010102008
:1005A300000000020408102040201008040200008C
:1005B300000000000000FE000000FE00000000003C
:1005C300000000402010080402040810204000002E
:1005D3000000003C424262020408080018180000B0
:1005E30000000038445AAAAAAAAAB4424438000018
:1005F300FFFFFFFFFFFFFFFFFFFFFFFFFFFFFFFF08
:1006030000000000000000000000000000000000E7
:10061300000000000000000000F8000000000000DF
:1006230000333000000000100C06100C0600000020
:1006330000000000000040C07840C0784000043F44
:1006430004043F040400007088FC08300000001814
:1006530020FF211E0000F008F000E0180000002138
:100663001C031E211E0000F00888700000001E21DC
:1006730023241927211010160E000000000000008B
:10068300000000000000000000E018040200000069
:1006930000071820400000020418E000000000409A
:1006A300201807000000404080F080404000020214
:1006B300010F01020200000000F000000000010130
:1006C300011F01010100000000000000000080B0D4
:1006D30070000000000000000000000000000001A6
:1006E30001010101010100000000000000000030D1
:1006F300300000000000000000008060180400606B
:1007030018060100000000E010080810E000000FC8
:10071300102020100F00001010F80000000000202F
:10072300203F202000000070080808887000003077
:10073300282422213000003008888848300000181F
:10074300202020110E000000C02010F80000000738
:100753000424243F240000F80888880808000019AE
:10076300212020110E0000E0108888180000000FDF
:10077300112020110E0000380808C83808000000B6
:10078300003F000000000070880808887000001C0B
:10079300222121221C0000E010080810E0000000C4
:1007A300312222110F00000000C0C0000000000031
:1007B3000030300000000000008000000000000056
:1007C300806000000000000080402010080000014D
:1007D3000204081020004040404040404000040410
:1007E30004040404040000081020408000000020DA
:1007F300100804020100007048080808F000000017
:10080300003036010000C030C828E810E0000718A7
:10081300272423140B000000C038E0000000203C14
:1008230023020227382008F8888888700000203FB8
:10083300202020110E00C0300808080838000718CF
:1008430020202010080008F808080810E000203FC6
:10085300202020100F0008F88888E8081000203FA7
:1008630020202320180008F88888E8081000203F7B
:10087300200003000000C0300808083800000718F3
:100883002020221E020008F808000008F808203F74
:10089300210101213F20000808F80808000000207A
:1008A300203F2020000000000808F8080800C0804E
:1008B30080807F00000008F888C028180800203FC7
:1008C30020012638200008F8080000000000203F1F
:1008D30020202020300008F8F800F8F80800203F16
:1008E300003F003F200008F830C00008F808203F10
:1008F300200007183F00E01008080810E0000F1060
:10090300202020100F0008F808080808F000203FF6
:10091300210101010000E01008080810E0000F1891
:10092300242438504F0008F8888888887000203FB6
:100933002000030C302000708808080838000038B5
:10094300202121221C00180808F8080818000000BC
:10095300203F2000000008F808000008F808001FE6
:10096300202020201F000878880000C838080000D5
:1009730007380E010000F80800F80008F800033CEF
:100983000700073C030008186880806818082030B7
:100993002C03032C30200838C800C8380800000096
:1009A300203F2000000010080808C838080020383D
:1009B300262120201800000000FE02020200000091
:1009C300007F40404000000C30C0000000000000E9
:1009D30000010638C00000020202FE0000000040D1
:1009E30040407F00000000000402020204000000F7
:1009F30000000000000000000000000000008080F4
:100A030080808080808000020204000000000000DB
:100A130000000000000000008080808000000019BA
:100A2300242222223F2008F8008080000000003F9B
:100A3300112020110E000000008080800000000EB5
:100A4300112020201100000000808088F800000E93
:100A5300112020103F200000808080800000001FB4
:100A6300222222221300008080F088888818002028
:100A7300203F202000000000808080808000006BE9
:100A830094949493600008F8008080800000203FD5
:100A9300210000203F2000809898000000000020E3
:100AA300203F20200000000000809898000000C034
:100AB3008080807F000008F8000080808000203F55
:100AC30024022D302000000808F800000000002058
:100AD300203F202000008080808080808000203F95
:100AE30020003F20003F8080008080800000203F66
:100AF300210000203F200000808080800000001F34
:100B0300202020201F00808000808000000080FFC4
:100B1300A12020110E000000008080808000000EC4
:100B2300112020A0FF808080800080808000202012
:100B33003F2120000100000080808080800000337E
:100B4300242424241900008080E080800000000019
:100B5300001F202000008080000000808000001F14
:100B6300202020103F2080808000008080800001B2
:100B73000E300806010080800080008080800F30E6
:100B83000C030C300F000080800080808000002068
:100B9300312E0E3120008080800000808080808193
:100BA3008E70180601000080808080808000002104
:100BB300302C2221300000000000807C0202000063
:100BC3000000003F404000000000FF000000000064
:100BD3000000FF0000000002027C800000000040D3
:100BE300403F00000000000601010202040400006F
:100BF30000000000000000E000FF908C44442F340C
:100C030064548CE480000000000000000000000039
:100C130000000000000041300C038449310F010142
:100C23003F4141417000000000000000000000004F
:100C3300000000000000202022AA2A2A2AEA2A2AE9
:100C4300AAFE202020000000000000000000000099
:100C530000000000000000103010094A847F0205E4
:100C63000818301000000000000000000000000021
:100C73000000000000000000E242424242424242C1
:100C8300427E0000000000000000000000000000A1
:100C930000000000000000003F2020202020202032
:100CA3002020203C10000000000000000000000095
:100CB30000000000000000402018161010FF101064
:100CC30010101000000000000000000000000000F1
:100CD3000000000000000001814121110D030509FE
:100CE3003161C1410100000000000000000000006C
:100CF3000000000000000000FE02F202FE20F817D0
:100D03001210F010100000000000000000000000AE
:100D13000000000000000040310C0304B950201310
:100D23000C1360C040000000000000000000000041
:100D33000000000000000000F8484848C808FF0809
:100D4300090AC88808000000000000000000000035
:100D530000000000000040300F0008504F20100B2F
:100D63000C122140F0000000000000000000000011
:100D730000000000000000040404FC04141410909C
:100D83007F1010F0000000000000000000000000D1
:100D9300000000000000040C0404034222110C2391
:100DA3002060201F00000000000000000000000081
:100DB300000000000000404048484848C8FF484839
:100DC30048484840400000000000000000000000C8
:100DD30000000000000020201010080601FF01029F
:100DE300040818301000000000000000000000009C
:100DF30000000000000000404242424242FEC24264
:100E03004242424240000000000000000000000097
:100E130000000000000040402010080403003F4091
:100E2300404040407000000000000000000000004F
:060E3300000000000000B9
:0C22DF00016D01016C0A016E01016A0131
:101C9000121FD612146F1221861221D4121F3E8FEA
:101CA00008E508B402151222ECE56CB40A03756C61
:101CB00012156CAF6C121E9AE4F56EE508B4010AB9
:101CC0001222EC056B056B121B9CE508B40313E5AF
:101CD0006D14600804700B1221FA80061221AD7594
:101CE0006E01E56D70B6E56EB401B1AF6C121E9A6F
:101CF000121631056C121DDAE56C6412709E756C5B
:031D00000A8099BD
:10215800E4FDFCC3ED9FEC9E5023E4FBFA900000E5
:10216800A3E582B4BFFAE583B403F50BBB00010A0B
:0D217800EB64054A70E70DBD00010C80D638
:012185002237
:101FD60053D9BF75B283E4F5B943B980FF0FBFFF8C
:101FE600FC43B9C0E5B930E5FBE4F5A943EF02438C
:101FF600B69043A90343B20375A4FF75A5FF75A662
:10200600FF75A7FFF5AE75F5FF43E240C2A3C2A474
:0A201600C2A5C2A61222F80221FAA8
:0C22EC00D2A27F0A7E00122158C2A2225A
:0C22F800D2A27FC87E00122158C2A22290
:101F3E00AFC7EF54E0F9B9E003D38001C34035E5F4
:101F4E006A60314307E07F0F7E00122158AFC7EF62
:101F5E0054E0FEBEE003D38001C3401EE4F56AEFF9
:101F6E0020E7037F0322EF20E6037F0222EF20E526
:0C1F7E00097F0122B9E003756A017F00B1
:011F8A002234
:101DDA00750B50E4F50AE50AC3950B50577F0A7E46
:101DEA0000122158121F3E8F09E509B40211E4F5C9
:101DFA006E1222EC7F0C121E9A756C0C850B0AE58A
:101E0A0009B40111E4F56E1222EC7F0B121E9A75C9
:101E1A006C0B850B0AE509B40316E56D146008041A
:101E2A00700B1221FA80061221AD756E01850B0A1C
:041E3A00050A80A273
:011E3E002281
:10146F00D2977F647E00122158C297122158D297CB
:10147F00E4FD7FAE1220FAE4FDFF1220FAE4FD7FB7
:10148F00101220FAE4FD7F401220FAE4FD7F811252
:10149F0020FAE4FD7FCF1220FAE4FD7FA11220FA9B
:1014AF00E4FD7FC81220FAE4FD7FA61220FAE4FDC6
:1014BF007FA81220FAE4FD7F3F1220FAE4FD7FD3CC
:1014CF001220FAE4FDFF1220FAE4FD7FD51220FA74
:1014DF00E4FD7F801220FAE4FD7FD91220FAE4FDAB
:1014EF007FF11220FAE4FD7FDA1220FAE4FD7F1279
:1014FF001220FAE4FD7FDB1220FAE4FD7F40122078
:10150F00FAE4FD7F201220FAE4FD7F021220FAE4B4
:10151F00FD7F8D1220FAE4FD7F141220FAE4FD7F87
:10152F00A41220FAE4FD7FA61220FAE4FD7FAF1289
:10153F0020FAE4FD7FAF1220FA122186E4FDFF02AC
:02154F00224632
:1020E900F583E5822CF582E43583F583E493FF7D5E
:0120F90001E5
:1020FA00ED6004D2968002C296C295E4FEC2A1EFB8
:10210A0030E704D2A08002C2A0D2A1EF25E0FF0EE0
:07211A00BE08EAD295D2963F
:01212100229B
:10224600AC07ED24B0FFE4FD1220FAEC54F0C454C0
:102256000F4410FF1220FAEC540F4401FF0220FA3B
:1022BD00E4FD7F8D1220FA7F141220FA7FAF0220E9
:0122CD00FA16
:1022CE00E4FD7F8D1220FA7F101220FA7FAE0220DD
:0122DE00FA05
:10218600E4FCEC24B0FFE4FD1220FAE4FF1220FA8E
:102196007F101220FAE4FB7D01E4FF1220FA0BBB4C
:0621A60080F50CBC08DC12
:0121AC002210
:061D7400AA07A905AF0358
:101D7A00E4FCEF24E0FBEAD3947F4004E4FA090987
:101D8A00AF02AD01122246E4FC75F010EBA42CF56B
:101D9A0082E435F0F583E5822409F582E583340689
:101DAA001220F30CBC08E2AF02E904FD122246E459
:101DBA00FC75F010EBA42CF582E435F0F583E5828E
:0F1DCA002411F582E58334061220F30CBC08E2E5
:011DD90022E7
:042266008F73A905C4
:10226A007F017E00AD0119ED6009AD737C00121289
:03227A003980F1B7
:01227D00223E
:081C1C008F618D628A638B6405
:101C2400E4F569F567E567C39565505FC3E56595B8
:101C34006714FD7F0A122266AC63AD64CFCDCFCEAC
:101C4400CCCE12124B7C007D0A12124B8D68E569D2
:101C54007020E56514FFE567C39F5016E568700FB3
:101C6400E566C3138567F0A42561FF7B20801375A7
:101C74006901E566C3138567F0A42561FFE568245F
:0B1C840030FBAD62121D740567809AF2
:011C8F002232
:0A20AC008F178D188B198A1A891BF3
:1020B600E4F51CAB19AA1AA91B851C8275830012AC
:1020C600120CFB601DAD18AF17121D74740825178E
:1020D600F517D394784007E4F51705180518051C7D
:0220E60080D1A7
:0120E80022D5
:04206900AA07A90514
:10206D00E4F574122246E4FC75F040EBA424F9F576
:10207D0082E5F0340B1220E905740CBC10EAAF02B6
:10208D00E904FD122246E4FC75F040EBA42419F599
:0E209D0082E5F0340C1220E905740CBC10EA48
:0120AB002212
:102020004B4D3230305F5445535420202020202027
:102030000038333639615F6C67342E3320005434F6
:10204000332D4C3320202000F800F80007E007E093
:10205000001F001FFFFFFFFF3031323334353637AA
:0920600038394142434445460071
:01230F0022AB
:1022AB00C294C293D291C29275B0008F80D292D257
:0222BB0093226C
:101551007FEC12161F7F1B12161F7F4C12161F7F66
:101561004012161F7F0212161F7F0812161F7F12CC
:1015710012161F7F1A12161F7F2212161F7F2A12A0
:10158100161F7F3112161F7F3612161F7F3F12164C
:101591001F7F4812161F7F5112161F7F5812161FE8
:1015A1007F6012161F7F6812161F7F7012161F7F31
:1015B1007812161F7F8012161F7F8812161F7F90C8
:1015C10012161F7F9812161F7FA012161F7FA712D7
:1015D100161F7FAF12161F7FB612161F7FBE12167F
:1015E1001F7FC712161F7FCE12161F7FD612161F1E
:1015F1007FDE12161F7FE612161F7FEF12161F7F66
:10160100F512161F7FFB12161F0F12161F7FFE12F7
:0E161100161F7F8C12161F7FA412161F7F1942
:10161F00D294C293D291C29275B0008F80D292D2DF
:02162F00932204
:101B1200121781C293D291D294E4F50CF50DE4FD33
:101B2200FCC3EC94005010E4F5B0F580C292D2925E
:101B32000DBD00010C80EAE4FCFDE4FBFAEDAE040D
:101B42007802C333CE33CED8F97803CEC313CE1383
:101B5200D8F9FFED25E0F933333354F84FF5B0ED02
:101B620025E025E0C43354E049F580C292D2920BBD
:101B7200BB00010AEB641E4A70C30DBD00010CEDEF
:101B820064104C70B5050DE50D7002050C642070F3
:091B920004E50C64037087D29392
:011B9B002227
:0412CB008E4B8F4C6B
:1012CF00121781C293D294D291E4F554E4F550F5FC
:1012DF0051754DFF854B4E854C4FE4F555E4F55256
:1012EF00F553AE50AF517C017D40121239AB4DE535
:1012FF004F2FF9E54E3EFAE55325E0FFE55233FE59
:10130F00E92FF9EA3EFA1212A0FDACF0ECF5B08D20
:10131F0080C292D2920553E5537002055264A045E4
:10132F005270BF0555E555B403B3754DFF854B4E50
:10133F00854C4FE4F552F553C3E5529400503DAE42
:10134F0050AF517C017D40121239AB4DE54F2FF953
:10135F00E54E3EFAE55325E0FFE55233FEE92FF95E
:10136F00EA3EFA1212A0FDACF0ECF5B08D80C292FD
:10137F00D2920553E5537002055280BC0551E551D9
:10138F007002055064A0455060030212E00554E559
:10139F0054640560030212DBE4F550F551C3E550C8
:1013AF009400400302146C754DFF854B4E854C4FD6
:1013BF00E4F555E4F552F553AE50AF517C017D4045
:1013CF00121239AB4DE54F2FF9E54E3EFAE5532595
:1013DF00E0FFE55233FEE92FF9EA3EFA1212A0FDC3
:1013EF00ACF0ECF5B08D80C292D2920553E55370FC
:1013FF0002055264A0455270BF0555E555B403B3BD
:10140F00754DFF854B4E854C4FE4F552F553C3E5B3
:10141F00529400503DAE50AF517C017D40121239B5
:10142F00AB4DE54F2FF9E54E3EFAE55325E0FFE5CD
:10143F005233FEE92FF9EA3EFA1212A0FDACF0EC9E
:10144F00F5B08D80C292D2920553E55370020552CA
:0F145F0080BC0551E551700205500213ACD293C9
:01146E00225B
:1019F000121781C293D291D294E4FDFCC3EC9400FF
:101A00005025E4F50CF50DE4F5B0F580C292D292C4
:101A1000050DE50D7002050CB4E0ECE50CB401E732
:101A20000DBD00010C80D5E4FCFDE4FBFAE4F50CEF
:101A3000F50DED25E0FFEC33FEEF7803CEC313CEBA
:101A400013D8F9FFAE05EE33333354F84FF5B0ED4C
:101A500025E0C43354E04DF580C292D292050DE5E5
:101A60000D7002050CB4E0CAE50CB401C50BBB0057
:101A7000010AEB64194A70B50DBD00010CED64203C
:051A80004C70A7D29399
:011A8500223E
:10227E007F281222AB7F0A7E001221587F10122275
:08228E00AB7F0A7E000221581B
:1017810015751575A875760308761F7A007B007CA0
:07179100017DDF7E007F00F7
:1017980015751575A875A60208A60315751575A8FB
:1017A80075A60408A60515751575A875A60608A6D4
:1017B800077F2A1222ABA975E7FF12161FA9750920
:1017C800E7FF12161FA8750808A900E7FF12161FE1
:1017D800A8750808A90009E7FF12161F7F2B122217
:1017E800ABE5752404F9E7FF12161FE5752404F923
:1017F80009E7FF12161FE5752406F9E7FF12161F01
:10180800E5752406F909E7FF12161F7F2C1222AB93
:07181800E5752408F57522B7
:042122008E0C8F0D83
:10212600121781C293D294D291E50CF5B0850D8039
:10213600E4FFE4FDFCC292D2920DBD00010CBC018D
:10214600F4BDE0F10FBF00010EBE03E6BF20E3D2EF
:0121560093F5
:012157002265
:10181F00783B7C007D007BFF7A2079487E007F102B
:10182F001211CD121781C293D291D294E4FD1CE410
:10183F00F537F538E4F539F53AED25E0243BF8E6D0
:10184F00FE08E6F580EEF5B0C292D292053AE53A7F
:10185F0070020539B4E0E2E539B401DD0538E53849
:10186F00700205376464453770CA0DBD00010CED79
:10187F0064084C70BAE4F537F538C3E53794005077
:10188F002AE4F539F53A854A80E549F5B0C292D296
:10189F0092053AE53A70020539B4E0EAE539B40148
:0D18AF00E50538E53870D3053780CFD293BA
:0118BC002209
:10195800121781C293D291D29475B0F8E4F580C27F
:1019680092D292FF75B0FF7580FFC292D2920FBFDC
:1019780000010EBE01EEBFDEEBE4F5B075801FC2BC
:1019880092D292FDFC75B0F8E4F580C292D292FE34
:10199800FFE4F5B0F580C292D2920FBF00010EBEEF
:1019A80001EFBFDEECE4F5B075801FC292D2920D54
:1019B800BD00010CBC03CEBD1ECB75B0F8E4F580AC
:1019C800C292D292FEFF75B0FF7580FFC292D2928A
:1019D8000FBF00010EBE01EEBFDEEBE4F5B075806F
:0719E8001FC292D292D293BC
:0119EF0022D5
:10229600AD07AC06C293D291D2948CB08D80C29217
:0522A600D292D2932248
:101E3F00EFC3942050047F5F8050EFC39420400C79
:101E4F00EFD3942F5006EF2428FF803EEFC394303A
:101E5F00400CEFD39439500674D02FFF802CEFC372
:101E6F00943A400CEFD394405006EF241EFF801A93
:101E7F00EFC39441400CEFD3947E5006EF24C9FF7B
:0B1E8F008008EFD3947E40027F5F22AA
:1016DD00FDE43522FC85262F852730852831852987
:0516ED0032AB25AA2428
:0616F2008F2AAF05AE04D3
:1016F800EB240FFDE43A15751575A875F608A605CF
:10170800EF2407FDE43EFC121798AF2A7E00D3EFC2
:10171800945FEE940040027F5FEFC4F8540FC868EE
:10172800FFEEC454F048FE7534FF75350075360376
:10173800EF2536F536EE3535F535E4F533AB3405BA
:1017480036E536AA357002053514F91211F3FBE4B3
:10175800FAEBA802088002C333D8FC30E706AF30A2
:10176800AE2F8004AF32AE311222960ABA08E205D3
:0817780033E533C3941040C5B2
:011780002246
:1018BD008B568A5789588C598D5AAB56AA57A958A9
:1018CD001211F37003D38001C34066AB560558E582
:1018DD0058AA577002055714F91211F3FF121E3F43
:1018ED00855D2F855E30855F31856032AB5CAA5B8F
:1018FD00AD5AAC591216F2D3E55A94D7E559940165
:10190D004012E4F559F55A7410255CF55CE4355B2D
:10191D00F55B800B7408255AF55AE43559F559D302
:10192D00E55C940FE55B94034090E4F55BF55C801A
:10193D008915751575A875760308761F7A007B00D5
:0B194D007C017DDF7E007F0002179808
:101D03008E208F218C228D238A248B25D3E5239447
:101D1300BFE522940140067522017523BFD3E52553
:101D2300940FE5249403400CE52524EFF525E524E1
:101D330034FFF524E520C4F854F0C8E521C4540F5A
:101D430048540FFFE52324101216DDE521540FFF3D
:101D5300E52324181216DD15751575A87576030885
:101D6300761F7A007B007C017DDF7E007F000217F7
:011D730098D7
:10163100780E7C007D007BFF7A2079587E007F1137
:101641001211CDE4F51FE51FD394065052E51F2575
:10165100E02400F582E43400F583A3E054F0FFE4D4
:10166100C4F854F0C8EFC4540F48240EF8E6FBE563
:101671001F75F012A4FF7D06121D74E51F25E024DD
:1016810000F582E43400F583A3E0540F240EF8E65C
:10169100FBE51F75F012A42408FF7D06121D74E5F9
:1016A1001F25E02400F582E43400F583E0FAA3E08D
:1016B100FBE51F75F014A4FDACF07526077527E056
:1016C100E4F528F529AF03AE027B16FA121D0305D6
:0B16D1001FE51FC394045003021647DE
:0116DC0022EB
:0A2304007F08900000E4F0A3DFFC66
:01230E0022AC
:101F8B007580FF75B0FFC293D294D292C291E4F5E3
:101F9B00A7F5A475F1FF75F4FF00000000D29100C6
:101FAB00000000AFB0F50E8F0FE50F750F00F50EAB
:101FBB00AF80EF420FE475A7FF75A4FFD2917F01AD
:0A1FCB00FE122158D293AE0EAF0FA4
:011FD50022E9
:021EEE008D0C59
:101EF0001222ABE50CD394144003750C14E4F50DD9
:101F0000E50DC3950C5019121F8BE50D25E024003B
:101F1000F582E43400F583EEF0A3EFF0050D80E0E8
:101F2000900000E07004A3E06485700F900000F062
:0E1F3000A37477F0A3E4F0A37489F0021631D5
:100E3900C293D2907F0A7E00122158C2907F0A7E07
:100E490000122158D2907F147E001221587FB912C6
:100E590022AB7FFF12161F7F8312161F7F6912169E
:100E69001F7FB11222AB7F0112161FE41F12161F3A
:100E79007F3412161F7F0712161FFF12161F0F123B
:100E8900161F7F0F12161F7F2A12161F7F32121686
:100E99001F7F3F12161F12161F7F0712161F7F1082
:100EA90012161F7F0112161F7FE612161F12161F38
:100EB90012161F12161F12161F7FB21222ABFF1233
:100EC900161F7F2012161F7F0312161F12161F7F6F
:100ED9007012161FFF12161F7FFF12161FFF121620
:100EE9001F12161F12161F12161F7F0312161F122A
:100EF900161FFF12161F0F12161F7FB41222ABFF07
:100F090012161F7F0C12161F7FA012161F7F0E12BA
:100F1900161F7F0612161F7FB61222AB7F2C1216E0
:100F29001F12161F7FD51222ABFF12161F7F051243
:100F3900161F7F0312161FFF12161F0F12161F7F8F
:100F49000912161F7F1012161F7F8012161F7F3776
:100F590012161F12161F7F2012161F7F3112161F1D
:100F69007F4612161F7F8A12161F7F5712161F7F80
:100F79009B12161F7F2012161F7F3112161F7F46E4
:100F890012161F7F8A12161F7F5712161F7F9B1278
:100F9900161F7F0712161F7F0F12161F7F021216C8
:100FA9001FFF12161F7FE01222ABFF12161F7F08C8
:100FB90012161F7F0D12161F7F2D12161F7F341256
:100FC900161F7F3F12161A7F3812161F7F09121635
:100FD9001F7F0E12161F12161F7F1212161F7F1463
:100FE90012161F7F1212161F7F1412161F1F1216B8
:100FF9001AFF12161F7F0812161F7F0D12161F7F68
:101009002D12161F7F3412161F7F3F12161A7F38B2
:1010190012161F7F0912161F7F0E12161F12161F96
:101029007F1212161F7F1412161F7F1212161F7FAE
:101039001412161F1F12161A7FC11222AB7F01123A
:10104900161F0F1215671215511215517FEC121642
:101059001F7F1B12161F7F4C12161F7F4012161F6F
:101069007F2D1222ABFDFCED75F008A4FF12161FAF
:101079000DBD00010CED64404C70ECE4FCFDED2568
:10108900E025E0FF12161F0DBD00010CED64404C78
:1010990070ECE4FCFDED75F008A4FF12161F0DBD00
:1010A90000010CED64404C70EC7F3A1222AB7F5585
:1010B90012161F7F111222AB7F787E001221587FF2
:1010C900291222AB0F1222ABE4FF12161F12161FB0
:1010D9000F12161F7FDF12161F7F2B1222ABFF1272
:1010E900161F12161F7F0312161F7F1F12161F7F4E
:0410F9002C0222ABF8
:1021D4007BFF7A207920E4FDFF1220AC7BFF7A207C
:1021E40079317D02E4FF1220AC7BFF7A20793E7DB9
:0621F40004E4FF0220AC30
:1022200020202020202020202020202020202020AE
:102230000020202020204461743A003031323334B1
:0622400035363738390085
:1021AD00E4F56D1222ECD2A3D2A4D2A57F327E002B
:1021BD00122158120E39756C0AAF6C121E9A7D04DD
:0721CD007FF47E00021EEE0C
:1021FA00756B3212227EC2A3C2A4C2A5C2A6C2A213
:10220A00756D017BFF7A2279207D06E4FF1220ACEE
:06221A001223040222EC75
:101E9A00EF24F6B407005048901EB075F003A4C5AD
:101EAA008325F0C58373021EC5021EC8021ECE0218
:101EBA001ED4021EDA021EE0021EE70219F07FEFAC
:101ECA007E7B801674FFFFFE80107F007EF8800AFA
:101EDA007FE07E0780047F1F7E00022122021958BC
:041EEA00121B122293
:101B9C0078097C007D007BFF7A22793B7E007F0BED
:101BAC001211CD7FC41222ABAF6B12161FE56B75F1
:101BBC00F06484F516E56B75F06484AFF0EF75F0A6
:101BCC000A84F515EF75F00A8485F0147BFF7A22F0
:101BDC0079207D06E4FF1220AC7BFF7A2279317DDF
:101BEC0006E4FF1220AC74092516F8E6FB7D067F8F
:101BFC0056121D7474092515F8E6FB7D067F5E12DE
:101C0C001D7474092514F8E6FB7D067F66021D74AD
:03000000021A865B
:0C1A8600787FE4F6D8FD758175021ACD5A
:1010FD00E709F608DFFA8046E709F208DFFA803ED5
:10110D0088828C83E709F0A3DFFA8032E309F608C1
:10111D00DFFA8078E309F208DFFA807088828C8329
:10112D00E309F0A3DFFA806489828A83E0A3F608DD
:10113D00DFFA805889828A83E0A3F208DFFA804CB7
:10114D0080D280FA80C680D4806980F2803380108E
:10115D0080A680EA809A80A880DA80E280CA8033F7
:10116D0089828A83ECFAE493A3C8C582C8CCC5836F
:10117D00CCF0A3C8C582C8CCC583CCDFE9DEE7803F
:10118D000D89828A83E493A3F608DFF9ECFAA9F0BE
:10119D00EDFB2289828A83ECFAE0A3C8C582C8CC14
:1011AD00C583CCF0A3C8C582C8CCC583CCDFEADE2D
:1011BD00E880DB89828A83E493A3F208DFF980CC8F
:1011CD0088F0EF60010E4E60C388F0ED2402B40488
:1011DD000050B9F582EB2402B4040050AF2323452F
:0611ED00822390114D73F6
:1011F300BB010689828A83E0225002E722BBFE02FA
:09120300E32289828A83E493222C
:10120C00BB010CE58229F582E5833AF583E0225097
:10121C0006E92582F8E622BBFE06E92582F8E222E1
:0D122C00E58229F582E5833AF583E49322FB
:10123900EF8DF0A4A8F0CF8CF0A428CE8DF0A42EC9
:02124900FE2283
:10124B00BC000BBE0029EF8DF084FFADF022E4CC87
:10125B00F875F008EF2FFFEE33FEEC33FCEE9DEC50
:10126B00984005FCEE9DFE0FD5F0E9E4CEFD22ED96
:10127B00F8F5F0EE8420D21CFEADF075F008EF2FE0
:10128B00FFED33FD4007985006D5F0F222C398FDD1
:05129B000FD5F0EA226E
:1012A000BB010A89828A83E0F5F0A3E02250068719
:1012B000F009E71922BBFE07E3F5F009E3192289DB
:0B12C000828A83E493F5F0740193220E
:101A9200021C90E493A3F8E493A34003F68001F2BE
:101AA20008DFF48029E493A3F85407240CC8C33355
:101AB200C4540F4420C8834004F456800146F6DF24
:101AC200E4800B01020408102040809022DFE47EB3
:101AD200019360BCA3FF543F30E509541FFEE49319
:101AE200A360010ECF54C025E060A840B8E493A3E0
:101AF200FAE493A3F8E493A3C8C582C8CAC583CA0B
:101B0200F0A3C8C582C8CAC583CADFE9DEE780BEC2
:0122EB0000F2
:00000001FF
