:102883005553422044454255470055534220524533
:1028930041440010C4EA611A03530069006C0069E3
:1028A3000063006F006E0020004C00610062007343
:1028B300001003550053004200200041005000491E
:1028C300000A0343003500310046000F8001000178
:1029F800012700012E0001330001350001360001D6
:102A08003400012B00022C0000042F0000000101FB
:082A180028AA012955012AFF3B
:1023520012252630B670121F2A7D067FBF7E00121C
:102362001A02122BD47F327E00122A99122BC1122A
:102372002A957F007EF8120003122BC1122A957F44
:10238200E07E07120003122BC1122A957F1F7E00E6
:10239200120003122BC1122A9574FFFFFE120003D2
:1023A200122BC1122A95121B9C122BC1122A95E4E0
:1023B200F509AF09121C59122BC1122A950509E51C
:0923C20009C3940640EC021194D9
:042A95007FC87E0078
:102A9900E4FDFCC3ED9FEC9E5014E4FBFA0BBB0074
:0E2AA900010AEBF44A70F60DBD00010C80E549
:012AB70022FC
:102BC10030B6051206AA80F87FF47E01122A9930E8
:032BD100B6FD222C
:1006AA00780E7C007D007BFF7A2879D27E007F015C
:1006BA00120D1CE52E7003020875750A01E50A255C
:1006CA00E025E02458F582E43402F583E07029E558
:1006DA000A25E025E02459F582E43402F583E0FE98
:1006EA00E50A25E025E0245AF582E43402F583E0A0
:1006FA00FDEDFF122B68803BE50A25E025E0245832
:10070A00F582E43402F583E064017027E50A25E006
:10071A0025E02459F582E43402F583E0FEE50A2552
:10072A00E025E0245AF582E43402F583E0FDEDFF8A
:10073A00122B03050AE50AC3941040810000000049
:10074A00000000000000000000000000000000009F
:10075A007BFF7A287983E4F514F515F516F51774F5
:10076A00FFF518F519E4FDFC12211390025BE02055
:10077A00E00302085B750A01E50A25E025E0245832
:10078A00F582E43402F583E07054E50A25E025E0B9
:10079A002459F582E43402F583E0FEE50A25E025D2
:1007AA00E0245AF582E43402F583E0FDEDFFE50A20
:1007BA0025E025E0245BF582E43402F583E075F058
:1007CA0024A4FDACF0E50A75F011A4FBAAF0751596
:1007DA00077516E0E4F517F5181221AE8067E50AE9
:1007EA0025E025E02458F582E43402F583E064012B
:1007FA007053E50A25E025E02459F582E43402F530
:10080A0083E0FEE50A25E025E0245AF582E4340275
:10081A00F583E0FDEDFFE50A25E025E0245BF5829E
:10082A00E43402F583E075F024A4FDACF0E50A7522
:10083A00F011A4FBAAF075150075161F74FFF517C1
:10084A00F5181221AE050AE50AC3941050030207EF
:10085A00820000000000000000000000000000000C
:10086A000000000000E4F52E0206BDE53470030224
:10087A000931E4F50AE50AC394404003020920C29B
:10088A00B0D2B17458250AF582E43402F583E0FF48
:10089A007459250AF582E43402F583E0FD122BF33C
:1008AA00D2B07458250AF582E43402F583E0FF05D4
:1008BA002DE52DAC2C7002052C142400F582740051
:1008CA003CF583EFF07459250AF582E43402F58386
:1008DA00E0FF052DE52DAC2C7002052C142400F543
:1008EA008274003CF583EFF0E4B52D23E52CB402C5
:1008FA001E782F120F041222D4900000E52BF07FED
:10090A00007E007D007C001222D4E4F52CF52D0532
:10091A000A050A02087FE4F534FB7A00790E7D01A4
:10092A00FC121707020875E5277003020A299002CC
:10093A005BE070030209E5750A04E50AC3942440E2
:10094A0003020A18C2B0D2B17458250AF582E434F7
:10095A0002F583E0FF7459250AF582E43402F5832F
:10096A00E0FD122BF3D2B07458250AF582E4340262
:10097A00F583E0FF052DE52DAC2C7002052C14241F
:10098A0000F58274003CF583EFF07459250AF5826C
:10099A00E43402F583E0FF052DE52DAC2C70020549
:1009AA002C142400F58274003CF583EFF0E4B52D95
:1009BA0023E52CB4021E782F120F041222D49000C1
:1009CA0000E52BF07F007E007D007C001222D4E43B
:1009DA00F52CF52D050A050A020944750A04E50AEB
:1009EA00C394245029C2B0D2B17458250AF582E4BE
:1009FA003402F583E0FF7459250AF582E43402F5DE
:100A0A0083E0FD122BF3D2B0050A050A80D0E4F583
:100A1A0027FB7A00790E7D01FC121707020931E5DE
:100A2A00367003020ADA750A04E50AC394244003FD
:100A3A00020AC97458250AF582E43402F583E07083
:100A4A00217459250AF582E43402F583E0FE745ACA
:100A5A00250AF582E43402F583E0FDEDFF122B68E6
:100A6A0080547458250AF582E43402F583E0B4010F
:100A7A00217459250AF582E43402F583E0FE745A9A
:100A8A00250AF582E43402F583E0FDEDFF122B031B
:100A9A0080247458250AF582E43402F583E0641050
:100AAA0070140000000000000000000000000000B8
:100ABA000000000000007404250AF50A020A33E463
:100ACA00F536FB7A00790E7D01FC121707020A2916
:100ADA00E5337003020C0DE4F50A7400250AF58269
:100AEA00E43402F583E4F0050AE50AB418EC90024E
:100AFA005FE025E0F50D90025DE0FEA3E0FDEEF576
:100B0A000BEDF50C90025CE064017034AF0CAE0B97
:100B1A00122B68E4F50AE50AC3950D5023122998A9
:100B2A007400250AF582E43402F583E4F0740125A1
:100B3A000AF582E43402F583EFF0050A050A80D645
:100B4A00E4F5337B017A027900E50DFD7C0012178A
:100B5A00077F647E00122A997BFF7A28798DE4F553
:100B6A0014F515F516F51774FFF518F519E4FDFCDB
:100B7A0012211390025BE020E003020ADA9002607D
:100B8A00E075F024A4FDACF07515077516E0E4F5E0
:100B9A0017F5187B11FAAF0CAE0B1221AEE4F50A69
:100BAA00E50AC3950D4003020ADA900260E075F087
:100BBA0024A4FDACF0C004C005E50AC3132402FF57
:100BCA00E433FE7C007D11120D88AA06AB0774007F
:100BDA00250AF582E43402F583E0FE7401250AF55C
:100BEA0082E43402F583E0FDEDFF75150075161FEA
:100BFA0074FFF517F518D005D0041221AE050A05C1
:100C0A000A809DE535603AE4F50A7418250AF582EA
:100C1A00E43402F583E4F0050AE50AB440EC9002F4
:100C2A00187401F0A374E0F0A37401F0A37440F007
:100C3A00E4F5357B017A0279187D40FC12170780AA
:010C4A00C2E7
:010C4B002286
:10291A0053D9BF75B283E4F5B943B980FF0FBFFF3E
:10292A00FC43B9C0E5B930E5FBE4F5A943EF02750C
:10293A00F1FF75A4FF75A5FF75F2FF75A6FF75AEC9
:10294A00FF75F4FF43A717C286C287D2B5D2B34335
:05295A00E10243E24030
:01295F002255
:1025260012291A122960902896E493FE740193FFEB
:10253600902898E493FC740193FD90020774FFF0D1
:10254600A37428F0A374B4F0A374FFF0A37428F066
:10255600A374C4F09028CEE49390020DF09028CF97
:10256600E49390020EF09028D0E493FB74019390CC
:10257600020FCBF0A3EBF07BFF7A28799A1214B501
:0C258600122B4F75A17075F80F0219267A
:03003E000229CDC7
:03008B0002181840
:10181800C0E0C0F0C083C082C0D075D000C000C096
:0D18280001C002C003C004C005C006C00717
:10183500122BE58F08E50830E27C7B017A027958A6
:101845007D40121E7B900258E0FFB5280FA3E0B53E
:10185500290AA3E0B52A05752E01805AEFB52A118C
:10186500900259E0B5290AA3E0B528057533018032
:1018750045900258E0B5290FA3E0B5280AA3E0B5C5
:101885002A05753501802F900258E0FFB5280FA372
:10189500E0B52A0AA3E0B529057527018018EFB53B
:1018A5002A11900259E0B5280AA3E0B52905753635
:1018B500018003753401E50830E70312003EE508B1
:1018C50030E60312291AE50830E41A153B153BA842
:1018D5003B76010876DF7A007B007C017D3F7E0048
:1018E5007F0012208CE50830E51C052B153B153BC8
:1018F500A83B76010876DF7A007B007C017D3F7E80
:06190500007F0012208C9F
:10190B00D007D006D005D004D003D002D001D00030
:0B191B00D0D0D082D083D0F0D0E032DA
:0C2B97007FFF122BA37FFF122BA37FFFF8
:092BA3008FA330FFFDC2FFAFA3B8
:012BAC002206
:0A00800075A3FF30FFFDC2FFAFA320
:01008A002253
:0226BE00AE0765
:1026C000E4FB122B97122B97C2FAEE4440FF122B19
:1026D000A3AF1FAE1EAD1DAC1C7818120EDE122B60
:1026E000A3AF1FAE1EAD1DAC1C7810120EDE122B58
:1026F000A3AF1FAE1EAD1DAC1C7808120EDE122B50
:10270000A3AF1F122BA37F95122BA37FFF122BA326
:0E271000BFFF09AE030BEED3946440EFD2FA84
:01271E002298
:101D1600E4FEFA75A90375A23BE4FD7FFF122BA32F
:101D26000DBD64F7E4F51FF51EF51DF51CFF122623
:101D3600BEAE070AEAD3940A5003BE01DCE4FAE415
:101D4600F51FF51EF51DF51C7F371226BEAE070AD8
:101D5600EAD3946440037F0122BE01E3E4FAF51F4F
:101D6600F51EF51DF51C7F291226BEAE070AEAD31D
:101D7600946440037F0122EE70C5EE601FE4FAE42E
:101D8600F51FF51EF51DF51C7F011226BEAE070ACE
:101D9600EAD3946440037F0122EE70E3E4F51FF575
:101DA6001EF51DF51C7F3B1226BEAE07E4F51F751A
:101DB6001E02F51DF51C7F101226BE75A201E4F564
:021DC600A9FF73
:011DC80022F8
:0822D4008F128E118D108C0F8A
:1022DC00E4FA75A903AF12AE11AD10AC0F78091268
:1022EC000EF18F1F8E1E8D1D8C1C7F181226BEAEFC
:1022FC00070AEAD3940A40037F0122EE70D7C2FA90
:10230C007FFF122BA37FFE122BA3FDFC74002DF577
:10231C008274003CF583E0FF122BA30DBD00010C71
:10232C00E4B505E8ECB402E4122B97AE07EE541FAB
:10233C0064056003D2FA227FFF122BA3EF60F8D260
:05234C00FAE4F5A9FF11
:012351002269
:082592008F1A8E198D188C17A9
:10259A00E4FA75A903AF1AAE19AD18AC1778091287
:1025AA000EF18F1F8E1E8D1D8C1C7F111226BE0AE6
:1025BA00EAD3940A40037F0122EF70D9C2FA1200CB
:1025CA0080BFFEFAE4FDFC12008074002DF58274CF
:1025DA00003CF583EFF00DBD00010CE4B505E8EC15
:0C25EA00B402E4122B9CD2FAE4F5A9FF25
:0125F60022C2
:102BD400121D16EF600A050AE50AD3940140F1229A
:012BE40022CE
:10008E00524541442049442000305800F800F80001
:10009E0007E007E0001F001FFFFFFFFF0000001832
:1000AE002442424242424242241800000000001004
:1000BE007010101010101010107C00000000003C8A
:1000CE004242420404081020427E00000000003C20
:1000DE0042420418040202424438000000000004A8
:1000EE000C14242444447E04041E00000000007EF0
:1000FE004040405864020242443800000000001C98
:10010E002440405864424242241800000000007E01
:10011E004444080810101010101000000000003C9D
:10012E004242422418244242423C00000000001881
:10013E0024424242261A0202243800000000001017
:10014E0010182828243C444242E70000000000F822
:10015E00444444784442424244F800000000003EC9
:10016E00424280808080804244380000000000F8C7
:10017E00444242424242424244F80000000000FC27
:10018E00424848784848404242FC0000000000FCCB
:10019E00424848784848404040E000000000003C9B
:1001AE0044448080808E844444380000000000E780
:1001BE00424242427E42424242E700000000007C40
:1001CE001010101010101010107C00000000003ED7
:1001DE000808080808080808080888F0000000EE5B
:1001EE00444850705048484444EE0000000000E07F
:1001FE00404040404040404042FE0000000000EEC3
:10020E006C6C6C6C5454545454D60000000000C7EF
:10021E00626252524A4A4A4646E2000000000038E4
:10022E00448282828282828244380000000000FC76
:10023E00424242427C40404040E000000000003814
:10024E00448282828282B2CA4C380600000000FCD0
:10025E004242427C4848444442E300000000003ED3
:10026E004242402018040242427C0000000000FE80
:10027E00921010101010101010380000000000E73F
:10028E004242424242424242423C0000000000E7EB
:10029E00424244242428281810100000000000D6E2
:1002AE0092929292AAAA6C4444440000000000E785
:1002BE00422424181818242442E70000000000EEFF
:1002CE004444282810101010103800000000007E42
:1002DE00840408081020204242FC0000001E10106A
:1002EE00101010101010101010101E0000004040C2
:1002FE0020201010100808040404020200780808D8
:10030E00080808080808080808087800001C2200D9
:10031E0000000000000000000000000000000000CF
:10032E000000000000000000000000FF0060100050
:10033E0000000000000000000000000000000000AF
:10034E000000003C421E2242423F0000000000C05E
:10035E004040405864424242645800000000000091
:10036E000000001C22404040221C0000000000063D
:10037E000202021E22424242261B00000000000022
:10038E000000003C427E4040423C00000000000F56
:10039E001110107E10101010107C000000000000D4
:1003AE000000003E444438403C42423C000000C045
:1003BE004040405C6242424242E700000000003092
:1003CE003000007010101010107C00000000000CA7
:1003DE000C00001C0404040404044478000000C053
:1003EE004040404E4850684844EE00000000007007
:1003FE001010101010101010107C000000000000E3
:10040E00000000FE4949494949ED00000000000086
:10041E00000000DC6242424242E7000000000000A1
:10042E000000003C42424242423C000000000000FC
:10043E00000000D864424242447840E000000000D0
:10044E000000001E22424242221E0207000000004F
:10045E00000000EE3220202020F8000000000000F6
:10046E000000003E42403C02427C000000000000C2
:10047E000010107C10101010100C00000000000076
:10048E00000000C642424242463B0000000000000F
:10049E00000000E742242428101000000000000095
:1004AE00000000D79292AAAA444400000000000067
:1004BE000000006E241818182476000000000000BA
:1004CE00000000E742242428181010E0000000006D
:1004DE000000007E44081010227E00000003040479
:1004EE0004040408040404040404030008080808AF
:1004FE00080808080808080808080808006010100E
:10050E00101010081010101010106000304C430026
:10051E0000000000000000000000000000000000CD
:10052E0000000000000000000000000000000010AD
:10053E0010101010101000001818000000123624B1
:10054E004800000000000000000000000000002431
:10055E002424FE484848FE48484800000000103851
:10056E0054545030181414545438101000000044D1
:10057E00A4A8A8A8541A2A2A2A4400000000003071
:10058E00484848506EA49488897600000060602028
:10059E00C00000000000000000000000000204087F
:1005AE00081010101010100808040200004020104F
:1005BE00100808080808081010204000000000006D
:1005CE001010D63838D610100000000000000000C1
:1005DE0010101010FE10101010000000000000008F
:1005EE000000000000000000606020C0000000005D
:1005FE00000000007F00000000000000000000006E
:10060E000000000000000000606000000000010219
:10061E0002040408081010202040400000000000D2
:10062E00000018180000000018180000000000005C
:10063E00000000100000000000101020000000025A
:10064E0004081020402010080402000000000000E2
:10065E000000FE000000FE00000000000000004050
:10066E002010080402040810204000000000003C86
:10067E004242620204080800181800000000003808
:10068E00445AAAAAAAAAB44244380000FFFFFFFFA8
:0C069E00FFFFFFFFFFFFFFFFFFFFFFFF5C
:102B6800AD07AC06C2B0D296C2B1C2978CC7E4F525
:082B7800A08DC7D297D2B02254
:092AFA007FB07E00122B68E4FF9E
:102B0300AD07AC06C2B0D2B1C2978CC7E4F5A08DB5
:062B1300C7D297D2B022E8
:0D2BF3008FC7C297D2978DC7C297D2972285
:102B3600AD07AC06C2B0D296D2B18CC7C297D297B7
:092B46008DC7C297D297D2B022CC
:10192600D2857FC87E00122A99C2857F207E031247
:101936002A99D2857F207E03122A997F117E001272
:101946002B687F78122A99122AFA7F78122A997FB1
:10195600B4122AFC7FC8122AFE7F57122B037F047B
:10196600122B037F60122B03E4FF122B037F1E1240
:101976002B037F37122B037F02122B037F77122B49
:10198600037F06122B037F0F122B03E4FF122B0398
:101996007FD0122B687F44122B037F41122B037FCB
:1019A60008122B037FD1122B687F28122B037F147A
:1019B600122B037FD2122B687F05122B037F121284
:1019C6002B037FE9122B687F01122B037FEA122B70
:1019D600687F03122B03E4FF122B03122B037F3ABB
:1019E600122B687F55122B037F36122B687F02124B
:0C19F6002B037F29122B687F05022A9921
:10207500153B153BA83B76010876DF7A007B007C93
:07208500017D3F7E007F009A
:10208C00153B153BA83BA60208A603153B153BA820
:10209C003BA60408A605153B153BA83BA60608A6BF
:1020AC00077F2A7E00122B68A93BE7FF122B03A89F
:1020BC003B08E6FF122B03A83B0808A900E7FF1218
:1020CC002B03A83B080808E6FF122B037F2B122BCF
:1020DC0068E53B2404F9E7FF122B03E53B2404F8E5
:1020EC0008E6FF122B03E53B2406F9E7FF122B034E
:1020FC00E53B2406F808E6FF122B037F2C122B6815
:07210C00E53B2408F53B222E
:040003008E0A8F0BC7
:10000700122075C2B0D2B1D296E4FDFCE4FBFAE54A
:100017000AF5C7C297D297850BC7C297D2970BBB72
:1000270000010ABA01E9BB40E60DBD00010CBC01A5
:06003700DBBDE0D8D2B0F1
:01003D0022A0
:101F2A00780E7C007D007BFF7A00799A7E007F1014
:101F3A00120D1C122075C2B0D296D2B1E4FDFCE497
:101F4A00F50AF50BE4F50CF50DED25E0240EF8E69F
:101F5A00FA08E6FBEAF5C7C297D2978BC7C297D2AF
:101F6A0097050DE50D7002050CB440DDE50CB401D2
:101F7A00D8050BE50B7002050A643C450A70C50DCD
:101F8A00BD00010CED64084C70B5E4F50AF50BC30D
:101F9A00E50A9400502EE4F50CF50DE51CF5C7C2D0
:101FAA0097D297851DC7C297D297050DE50D700286
:101FBA00050CB440E6E50CB401E1050BE50B700233
:061FCA00050A80CBD2B035
:011FD00022EE
:101B9C00122075C2B0D296D2B175C7F8C297D2973F
:101BAC00E4F5C7C297D297FFFE75C7FFC297D297CD
:101BBC0075C7FFC297D2970FBF00010EBE01EABFD7
:101BCC003EE7E4F5C7C297D29775C71FC297D29765
:101BDC00FDFC75C7F8C297D297E4F5C7C297D297A8
:101BEC00FEFFE4F5C7C297D297F5C7C297D2970FFD
:101BFC00BF00010EBE01EBBF3EE8E4F5C7C297D2B1
:101C0C009775C71FC297D2970DBD00010CBC01C2BE
:101C1C00BDDEBF75C7F8C297D297E4F5C7C297D29D
:101C2C0097FEFF75C7FFC297D29775C7FFC297D2B1
:101C3C00970FBF00010EBE01EABF3EE7E4F5C7C235
:0C1C4C0097D29775C71FC297D297D2B0ED
:011C58002269
:021C59008F0AF0
:101C5B0075A903122075C2B0D296D2B1E47516588D
:101C6B00751502F514F513AF0AFCFDFEAB16AA159C
:101C7B00A914A813120DB0EF2401F50EE43EF50DD7
:101C8B00E43DF50CE43CF50BE50E2516F512E50DE0
:101C9B003515F511E50C3514F510E50B3513F50F6E
:101CAB00AF12AE11AD10AC0FAB0EAA0DA90CA80B59
:101CBB00C3120ECD504FAF0EAE0DAD0CAC0B1225AB
:101CCB0092E4FBFAC3EA9402502474002BF582745D
:101CDB00003AF583E0FF74012BF58274003AF5832B
:101CEB00E0FD122BF374022BFBE43AFA80D6E50EDF
:101CFB002401F50EE4350DF50DE4350CF50CE4354A
:0A1D0B000BF50B809BD2B0E4F5A9A4
:011D150022AB
:10271F00EFC3942050047F5F8050EFC39420400C90
:10272F00EFD3942F5006EF2428FF803EEFC3943051
:10273F00400CEFD39439500674D02FFF802CEFC389
:10274F00943A400CEFD394405006EF241EFF801AAA
:10275F00EFC39441400CEFD3947E5006EF24C9FF92
:0B276F008008EFD3947E40027F5F22C1
:101FD100FDE43511FC85151F85162085172185180F
:051FE10022AB14AA135D
:061FE6008F1AAF05AE04E6
:101FEC00EB240FFDE43A153B153BA83BF608A60580
:101FFC00EF2407FDE43EFC12208CAF1A7E00D3EFD9
:10200C00945FEE940040027F5FEFC4F8540FC868F1
:10201C00FFEEC454F048FE7524FF7525007526AA02
:10202C00EF2526F526EE3525F525E4F523AB24051D
:10203C0026E526AA257002052514F9120D42FBE4AB
:10204C00FAEBA802088002C333D8FC30E706AF20B5
:10205C00AE1F8004AF22AE21122B360ABA08E2055D
:08206C0023E523C3941040C5D5
:012074002249
:102113008B0F8A1089118C128D13AB0FAA10A91182
:10212300120D427003D38001C34066AB0F0511E566
:1021330011AA107002051014F9120D42FF12271F85
:1021430085161F851720851821851922AB15AA141A
:10215300AD13AC12121FE6D3E5139437E5129401C5
:102163004012E4F512F51374102515F515E4351432
:10217300F514800B74082513F513E43512F512D307
:10218300E51594CFE51494014090E4F514F515801A
:1021930089153B153BA83B76010876DF7A007B0067
:0B21A3007C017D3F7E007F0002208C4D
:1021AE008E0F8F108C118D128A138B14D3E512940F
:1021BE001FE5119401400675110175121FD3E51428
:1021CE0094CFE5139401400CE51424EFF514E513B8
:1021DE0034FFF513E50FC4540FFF85151F85162028
:1021EE00851721851822AB14AA13AD12AC11121F3C
:1021FE00E6E50F540FFFE5122408121FD1E50FC4B8
:10220E00F854F0C8E510C4540F48540FFFE51224DB
:10221E0010121FD1E510540FFFE5122418121FD112
:10222E00153B153BA83B76010876DF7A007B007CD8
:0A223E00017D3F7E007F0002208C2E
:1029980075A0FFC2B0D2B1D297C296E4F5AEF5A643
:1029A800D28700000000D29600000000AFA0EFFE22
:1029B800ADC7EDFFC28775AEFF75A6FFD2960000C2
:0429C8000000D2B089
:0129CC0022E8
:102B8000E4FE7FD3122B6812000012000012000036
:062B90001200001200001B
:012B9600221C
:061A02008D0AAB07AA06E5
:101A0800122AFAAF03AE02122B68E50AD3941440E7
:101A180003750A14E4F50BE50BC3950A501912294E
:101A280098E50B25E02400F582E43402F583EEF016
:101A3800A3EFF0050B80E07BFF7A00798EE4F514C4
:101A4800F515F516F51774FFF518F519E4FDFC12F0
:101A58002113E4F50BE50BC3950A506A7BFF7A0066
:101A68007997E50B2401FFE433FE7C007D11120D0C
:101A7800888E148F1575160075171F74FFF518F5E5
:101A880019E4FD122113E50B25E02400F582E43466
:101A980002F583E0F8A3E0F5828883E50B2401FFD3
:101AA800E433FE7C007D11120D88AA06AB0775157C
:101AB8000075161F74FFF517F518AF82AE831D1257
:061AC80021AE050B808F2A
:011ACE0022F5
:10265B008A0A8B0BED2401FBE43C153B153BA83B95
:10266B00F608A603AB05AA04EF2401FDE43EFC1219
:10267B00208CC2B0D296D2B1E50AFFFDF5C7C29746
:10268B00D297AC0B8CC7C297D2978DC7C297D297F4
:10269B008CC7C297D2978FC7C297D297AE0B8EC7F4
:1026AB00C297D2978FC7C297D2978EC7C297D2972E
:0326BB00D2B02278
:0C25F7008E0E8F0F8C108D118A128B132A
:10260300153B153BA83BA61408A615AA12AB13ACA1
:1026130010AD11AE0EAF0F12208CAB13AA12E5153D
:102623002401FFE43514FEC3EB9FEA9E5029850F76
:1026330082850E83E5112401FFE43510FEC3E58294
:102643009FE5839E500AAF17AE16122B36A380E484
:072653000BBB00010A80C768
:01265A00225D
:0423CB008E0A8F0BDC
:1023CF00750C00750D0FC3E50D94DFE50C940150EE
:1023DF0027850C14850D15850A16850B17AB0DAACD
:1023EF000C7D3F7C01E4FFFE1225F77410250DF5DF
:1023FF000DE4350CF50C80CE750C00750D0FC3E593
:10240F000D943FE50C940150277514017515DF8568
:10241F000A16850B17E4FBFAAD0DAC0CAF0DAE0C25
:10242F001225F77410250DF50DE4350CF50C80CE43
:01243F00227A
:082C0C005450205445535400BC
:102A6F00C294C295E4900233F0EF20E704C2B28023
:102A7F0002D2B2D295EF25E0FFC295900233E00467
:052A8F00F0E0B408E4D2
:012A9400221F
:10244000900234120F3000000000C294D2B3E49026
:102450000233F0900233E0FFC3940C5049C2953030
:10246000B33AC3740B9FFF74017E00A80708800570
:10247000C333CE33CED8F9FFEE3395E0FDFC9002A6
:1024800034E0F8A3E0F9A3E0FAA3E04FFFEA4EFE40
:10249000E94DFDE84CFC900234120F24D2959002D5
:1024A00033E004F080ADD294900234A3A3E0FEA305
:0224B000E0FF4B
:0124B2002207
:0215EC00AB074B
:1015EE00E490021AF0A3F0A3F0D2B590021AE0C371
:1015FE00940B502C20B529C294EB04FF122A6F12C3
:10160E00244090021AE025E0241DF582E43402F510
:10161E0083EEF0A3EFF090021AE004F0D29480CBA8
:10162E0090021AE07003021703E4A3F090021AE08E
:10163E00F9A3E0C39940030216EFE4A3F090021B56
:10164E00E0FF90021AE0C39FFF90021CE0C39F4090
:10165E00030216E6E0FF25E0241FF582E43402F5CE
:10166E0083E0FCA3E0FDEF25E0241DF582E43402C7
:10167E00F583E0FEA3E0D39DEE9C405390021CE068
:10168E0025E0241DF582E43402F583E0FCA3E0FDA1
:10169E00900218ECF0A3EDF0EF25E0241FF582E4A4
:1016AE003402F583E0FEA3E0FF90021CE0FB25E090
:1016BE00241DF582E43402F583EEF0A3EFF0EB2562
:1016CE00E0241FF582E43402F583ECF0A3EDF090F4
:1016DE00021CE004F002164B90021BE004F002160E
:1016EE003AE9C31325E0241DF582E43402F583E0C4
:0816FE00FEA3E0FF22E4FEFF61
:0117060022C0
:10119400900200120F3000000000900204120F3081
:1011A40000000000900208120F30000000009002BE
:1011B4000C120F3000000000900210120F300000DB
:1011C4000000900214120F3000000000E4FFFE1231
:1011D40000037FB57EAD1223CB7BFF7A2C790CE420
:1011E400F514F515F516F51774FFF518F519E4FD62
:1011F400FC122113D2B520B5FD20B6030213397FAA
:10120400327E00122A9930B50302132F7FD01215B3
:10121400ECE4FCFD900208120F24900208E0FCA309
:10122400E0FDA3E0FEA3E024BDFFEE34FFFEED34B9
:10123400FFFDEC34FFFCE47B407A01F9F8120DB0B9
:10124400E47B6B7A07F9F8120E3B900200120F242C
:101254007F901215ECE4FCFD90020C120F24900216
:101264000CE0FCA3E0FDA3E0FEA3E0245FFFEE346A
:10127400FFFEED34FFFDEC34FFFCE47BE07A01F982
:10128400F8120DB0E47BB87A06F9F8120E3B90021E
:1012940004120F247F0F7E00122A9930B503021224
:1012A4000AE4FFFEFDFC900200E0F8A3E0F9A3E0ED
:1012B400FAA3E0FBC3120ECD500302120AE47F40EE
:1012C4007E01FDFC900200E0F8A3A3A3E0120ECD82
:1012D400400302120AE4FFFEFDFC900204E0F8A3BE
:1012E400E0F9A3E0FAA3E0FBC3120ECD500302120F
:1012F4000AE47FE07E01FDFC900204E0F8A3A3A3CE
:10130400E0120ECD400302120A900200A3A3E0FEF5
:10131400A3E0FFC006A3A3A3E0FEA3E0FDAC06D0B8
:10132400067B007AF812265B02120A7F327E0012D4
:101334002A990211FDE4FFFE1200037FB57EAD126F
:1013440023CB7BFF7A2C790CE4F514F515F516F50F
:101354001774FFF518F519E4FDFC1221130211FDB1
:100046001201100100000040C4100000000001026F
:1000560003010902200001010080FA0904000002E0
:10006600FF0000000705020240000007058202406B
:0A007600000004030904010000006B
:1014B500900200EEF0A3EFF0900204EBF0A3EAF047
:1014C500A3E9F0E4900791F0900791E0FF900046C2
:1014D50093FE74402FF582E43407F583EEF0900710
:1014E50091E004F0E0B412E0E4900791F0900791E8
:1014F500E0FF90005893FE74522FF582E43407F50F
:1015050083EEF0900791E004F0E0B420E090020053
:10151500E0FEA3E0900748F0EEA3F0A3EDF0ECA306
:10152500F090077274FFF0A37400F0A37478F09044
:101535000204E0F9A3E0FAA3E0900775C9F0A3EA75
:10154500F0A3E9F0900207E0F9A3E0FAA3E0900721
:1015550078C9F0A3EAF0A3E9F090020AE0F9A3E064
:10156500FAA3E090077BC9F0A3EAF0A3E9F09002A3
:101575000DE0FFC394FA500590075AEFF090020E64
:10158500E0900759F090020FE0FEA3E090074CF0C1
:10159500EEA3F0E59620E7FB759601759708E596AD
:1015A50020E7FB75960775970FE59620E7FB75967F
:1015B5000975970EE59620E7FB75960B75970775E8
:1015C500D7E0122C00E4900793F0900792F0900773
:1015D50094F0900786F043E602D2AFE59620E7FB4C
:0715E50075960175970122C4
:102A21009007867402F0E59620E7FB75960175978D
:102A310001E490078EF0A37403F0A3F0E4900793F0
:072A4100F090079204F0225F
:100F6100E59620E7FB75960EE4F597E59620E7FBFD
:100F7100759691E59620E7FB90079EE597F0E0FFD7
:100F810030E210E59620E7FB759611E4F59790079E
:100F91008EF022EF30E410E59620E7FB759611758F
:100FA1009780E490078EF090078EE0600302109224
:100FB10090079EE020E0030210927596204396C0B0
:100FC100E4900791F0E59620E7FB900791E0247EFD
:100FD100F582E43407F583E597F0900791E004F09A
:100FE100E0B407E1E59620E7FBE4F596900791E090
:100FF100247EF582E43407F583E597F0900781E0DC
:10100100FE900780E07C002400FFEC3E900795F005
:10101100A3EFF0900785E0FE900784E02400FFEC49
:101021003E900797F0A3EFF090077FE0B40C0050DB
:101031005D901039F828287302105D0210620210C9
:101041006702106C02108F02107102107602108F6D
:1010510002107B02108002108502108A1224B380D4
:10106100301227D4802B121ACF802612282C8021EF
:10107100122ADA801C121DC980171228D38012127D
:10108100277A800D122A488008122BAD8003122B7B
:101091001990078EE06401600302119390079E741A
:1010A10002F0C390078DE0944090078CE0940040DB
:1010B10061E59620E7FB759620E4900791F0900793
:1010C10091E0FFC394405022900787E0FBA3E0FA30
:1010D100A3E0F98F82758300120D5BF597E59620E9
:1010E100E7FB900791E004F080D4900788E475F065
:1010F10040120D9A90078DE024C0F090078CE034E7
:10110100FFF090078BE02440F090078AE03400F074
:101111008052E59620E7FB759620E4900791F090C8
:101121000791E0FFD390078DE09F90078CE094003A
:101131004026900787E0FBA3E0FAA3E0F99007912E
:10114100E0F582758300120D5BF597E59620E7FBCC
:10115100900791E004F080C790079EE04408F0E416
:1011610090078EF0900797E0FEA3E0FF90078AE0DA
:10117100B50611A3E0B5070C90079EE04408F0E422
:1011810090078EF0E59620E7FB75961190079EE09B
:03119100F59722AD
:102B1900E59620E7FB75960EE4F597E59620E7FB29
:0D2B290075961175972090078E7404F022A8
:1024B30090077EE0247F6007146006240270488042
:1024C3002D90078FE0B40309900782E0B4020280E5
:1024D3000E900790E0B40316900782E0B4820F9049
:1024E300078774FFF0A37400F0A3747C800D90073A
:1024F3008774FFF0A37400F0A3747EF090078CE45C
:10250300F0A37402F08003122B1990078EE0640489
:102513006010122BAD90078E7401F0E490078AF0DF
:03252300A3F02200
:1027D400900780E07041900782E0B4021DE59620E6
:1027E400E7FB75960E759702E59620E7FB75961440
:1027F400759780E490078FF08020E59620E7FB75BD
:10280400960E759702E59620E7FB7596117597402D
:10281400E4900790F08003122B19E59620E7FB75EE
:08282400960EE4F597022BADBE
:101ACF00900796E020E003021B65900794E030E05A
:101ADF000854FEF04402F08007900794E054FDF0A4
:101AEF00E59620E7FB75960E759702E59620E7FBC6
:101AFF00759614759710E59620E7FB7596117597F7
:101B0F0008E59620E7FB759694E59620E7FB90078E
:101B1F009DE597F0E020E4E9E59620E7FB75961444
:101B2F00759710E59620E7FB759691E59620E7FBF4
:101B3F0090079DE597F0E020E3E9E59620E7FB7538
:101B4F0096117597089007927408F0900794E0FF2C
:101B5F0030E1034401F0900795E0FCA3E0FD30E194
:101B6F000D9007867406F0900792E04410F0ED3068
:101B7F00E20D9007867404F0900792E04420F0E5A0
:0D1B8F009620E7FB75960EE4F597022BAD4E
:10282C00900780E07040900782E0B4021BE5962090
:10283C00E7FB75960E759702E59620E7FB759614E7
:10284C0075972090078F8019E59620E7FB75960EFB
:10285C00759702E59620E7FB759611759710900712
:10286C00907403F08003122B19E59620E7FB759604
:07287C000EE4F597022BADFD
:102ADA00E59620E7FBE4F596900780E0FFF597EF8F
:102AEA0090078660057403F080037402F0022BAD30
:101DC900900781E024FE601B14603B240270699037
:101DD90007877401F0A37407F0A37440F0900740DB
:101DE900E0804A9007877401F0A37407F0A3745246
:101DF900F0900755E0FE900754E07C002400FFECCA
:101E09003E90078C802C900780E075F003A4247223
:101E1900F582E43407F583E0FBA3E0FAA3E0F99047
:101E29000787EBF0A3EAF0A3E9F0120D42FF900750
:101E39008CE4F0A3EFF08003122B1990078CE0FEDD
:101E4900A3E0FF900797E0FCA3E0FDC39FEC9E5041
:101E59000890078CECF0A3EDF090078EE064046025
:101E690010122BAD90078E7401F0E490078AF0A34D
:021E7900F02255
:1028D300900786E0FFB40414A374FFF0A37400F020
:1028E300A3747CF090078CE4F0A304F0EFB4031618
:1028F30090078774FFF0A37400F0A3747EF0900731
:102903008CE4F0A304F0122BAD90078E7401F0E475
:0729130090078AF0A3F022F7
:10277A00900780E0D394004042900792E04440F0F2
:10278A009007867404F0E490078FF0A3F0E5962092
:10279A00E7FB75960E759702E59620E7FB7596128C
:1027AA00759784E59620E7FB759615759780E596EB
:1027BA0020E7FB75960EE4F597800C900786740364
:0A27CA00F090078FF0A3F0022BAD92
:102A480090078774FFF0A37400F0A3747EF09007DA
:102A58008CE4F0A304F0122BAD90078E7401F0E41F
:072A680090078AF0A3F022A1
:102BAD0090078EE06404600BE59620E7FB759611A7
:042BBD0075974022A6
:0300430002136441
:10136400C0E0C0F0C083C082C0D075D000C000C04F
:1013740001C002C003C004C005C006C0079007A195
:10138400E596F0E59620E7FB75968EE59620E7FB5B
:101394009007A2E597F0E59620E7FB759686E5961B
:1013A40020E7FB900799E597F0E030E30BE5962002
:1013B400E7FB75960B759707900799E030E20312E7
:1013C4002A21900799E030E014900786E0FF640436
:1013D4006004EFB40607900792E04480F0E596209D
:1013E400E7FB759682E59620E7FB900799E597F071
:1013F400E030E003120F61900799E030E22AE596AD
:1014040020E7FB75960E759702E59620E7FB759627
:1014140091E59620E7FB90079AE597F0E054037076
:1014240007900792E04402F0E59620E7FB75968466
:10143400E59620E7FB900799E597F0E030E229E58F
:101444009620E7FB75960E759702E59620E7FB75E7
:101454009694E59620E7FB90079AE597F0E030E054
:1014640007900792E04404F0E59620E7FB75960E9A
:101474009007A2E0F597E59620E7FB9007A1E59693
:10148400F0E59620E7FB900794E030E0099007929E
:10149400E06003122AB8D007D006D005D004D003E8
:1014A400D002D001D000D0D0D082D083D0F0D0E010
:0114B4003205
:10296000E5B964E0602E53A90FC0A943B280E5A980
:102970005407D394014003E4F5A9E4F5B943B980C1
:10298000E4D5E0FD43B9C0E5B930E5FBD0E0B402E1
:082990000343A90253A90F2221
:1029CD0053D7BF43C910E5A95402900791F043B204
:1029DD008075A910E4F5B943B22000122960900763
:0B29ED0091E042A953C9EF43D74022FC
:0E2BE500900792E0FFE4F022900792E0FF22BA
:101E7B00900786E0B40606EDD3944040037F002222
:101E8B00E59620E7FB75960E759702E59620E7FB26
:101E9B00759694E59620E7FB90079CE597F0E0207C
:101EAB00E003021F27E59620E7FB759696E5962043
:101EBB00E7FB900793E597F0E0FFEDC39F5006AE6D
:101ECB0005AF068000900793EFF053E6FDE59620F3
:101EDB00E7FB7596E2900793E06025FEEB6006301A
:101EEB00E70F7F0022E59620E7FBA79709DEF68038
:101EFB000F89828A83E59620E7FBE597F0A3DEF551
:101F0B00E59620E7FBE4F596E59620E7FB7596143E
:0F1F1B00E4F59743E602900793E0FF227F002250
:10170700900786E0B4060DED4C6009D3ED9400EC2C
:1017170094104004E4FEFF2253E6FDE490079FF097
:10172700A3F090079BF089828A83C083C0829007C9
:101737009BE030E003021808E59620E7FB75960E5C
:10174700759702E59620E7FB759691E59620E7FBEE
:1017570090079BE597F0E030E020E59620E7FB75E2
:10176700960EE4F597E59620E7FB759691E59620AA
:10177700E7FB90079BE597F080B4C3ED9440EC94AA
:10178700009007A0E0401B2440F090079FE0340042
:10179700F074C02DFD74FF3CFCE490079BF078408B
:1017A70080132DF090079FE03CF090079B7401F0A9
:1017B700A805E4FCFDE59620E7FB759622D082D0CC
:1017C70083E8602BEB601130E71AE59620E7FBE42E
:1017D70093F597A3D8F48017E59620E7FB87970939
:1017E700D8F6800BE59620E7FBE0F597A3D8F5C080
:1017F70083C082E59620E7FB75961175970102175E
:1018070035D082D08343E60290079FE0FEA3E0FF36
:0118170022AE
:102B4F00900794E04401F0900792E0600BE5962027
:092B5F00E7FB75960B75970F2238
:0C2C0000E59620E7FB75960F759789227A
:102AB800D007D007D007D006D005D004D003D00265
:102AC800D001D000D0D0D082D083D0F0D0E00200A6
:022AD8008B224F
:0300000002224891
:0C224800787FE4F6D8FD75813B02228F00
:100C4C00E709F608DFFA8046E709F208DFFA803E8A
:100C5C0088828C83E709F0A3DFFA8032E309F60877
:100C6C00DFFA8078E309F208DFFA807088828C83DF
:100C7C00E309F0A3DFFA806489828A83E0A3F60893
:100C8C00DFFA805889828A83E0A3F208DFFA804C6D
:100C9C0080D280FA80C680D4806980F28033801044
:100CAC0080A680EA809A80A880DA80E280CA8033AD
:100CBC0089828A83ECFAE493A3C8C582C8CCC58325
:100CCC00CCF0A3C8C582C8CCC583CCDFE9DEE780F5
:100CDC000D89828A83E493A3F608DFF9ECFAA9F074
:100CEC00EDFB2289828A83ECFAE0A3C8C582C8CCCA
:100CFC00C583CCF0A3C8C582C8CCC583CCDFEADEE3
:100D0C00E880DB89828A83E493A3F208DFF980CC44
:100D1C0088F0EF60010E4E60C388F0ED2402B4043D
:100D2C000050B9F582EB2402B4040050AF232345E4
:060D3C008223900C9C7361
:100D4200BB010689828A83E0225002E722BBFE02AF
:090D5200E32289828A83E49322E2
:100D5B00BB010CE58229F582E5833AF583E022504D
:100D6B0006E92582F8E622BBFE06E92582F8E22297
:0D0D7B00E58229F582E5833AF583E49322B1
:100D8800EF8DF0A4A8F0CF8CF0A428CE8DF0A42E7F
:020D9800FE2239
:100D9A00C5F0F8A3E028F0C5F0F8E58215827002E4
:060DAA001583E038F02281
:100DB000E88FF0A4CC8BF0A42CFCE98EF0A42CFCE2
:100DC0008AF0EDA42CFCEA8EF0A4CDA8F08BF0A460
:100DD0002DCC3825F0FDE98FF0A42CCD35F0FCEBBF
:100DE0008EF0A4FEA9F0EB8FF0A4CFC5F02ECD3984
:0F0DF000FEE43CFCEAA42DCE35F0FDE43CFC22F1
:100DFF0075F008758200EF2FFFEE33FECD33CDCCAB
:100E0F0033CCC58233C5829BED9AEC99E58298402D
:100E1F000CF582EE9BFEED9AFDEC99FC0FD5F0D60A
:100E2F00E4CEFBE4CDFAE4CCF9A88222B800C1B934
:100E3F000059BA002DEC8BF084CFCECDFCE5F0CB72
:100E4F00F97818EF2FFFEE33FEED33FDEC33FCEBAB
:100E5F0033FB10D703994004EB99FB0FD8E5E4F966
:100E6F00FA227818EF2FFFEE33FEED33FDEC33FC53
:100E7F00C933C910D7059BE99A4007EC9BFCE99A47
:100E8F00F90FD8E0E4C9FAE4CCFB2275F010EF2F8C
:100E9F00FFEE33FEED33FDCC33CCC833C810D7078C
:100EAF009BEC9AE899400AED9BFDEC9AFCE899F8C7
:0E0EBF000FD5F0DAE4CDFBE4CCFAE4C8F9225A
:100ECD00EB9FF5F0EA9E42F0E99D42F0E89C45F07B
:010EDD0022F2
:100EDE00E8600FECC313FCED13FDEE13FEEF13FFF2
:030EEE00D8F12216
:100EF100E8600FEFC333FFEE33FEED33FDEC33FC5F
:030F0100D8F12202
:100F04007401FF3395E0FEFDFC080808E6CF2FF6D8
:100F140018E6CE3EF618E6CD3DF618E6CC3CF622B1
:0C0F2400ECF0A3EDF0A3EEF0A3EFF02240
:100F3000A8828583F0D083D082120F47120F471208
:100F40000F47120F47E473E493A3C583C5F0C5832D
:100F5000C8C582C8F0A3C583C5F0C583C8C582C80B
:010F6000226E
:10225400022352E493A3F8E493A34003F68001F22B
:1022640008DFF48029E493A3F85407240CC8C3338B
:10227400C4540F4420C8834004F456800146F6DF5A
:10228400E4800B01020408102040809029F8E47EC9
:10229400019360BCA3FF543F30E509541FFEE4934F
:1022A400A360010ECF54C025E060A840B8E493A316
:1022B400FAE493A3F8E493A3C8C582C8CAC583CA41
:1022C400F0A3C8C582C8CAC583CADFE9DEE780BEF9
:012A200000B5
:00000001FF
